{
  "contractName": "PatientRecords",
  "abi": [
    {
      "inputs": [],
      "stateMutability": "nonpayable",
      "type": "constructor"
    },
    {
      "inputs": [],
      "name": "admin",
      "outputs": [
        {
          "internalType": "address",
          "name": "",
          "type": "address"
        }
      ],
      "stateMutability": "view",
      "type": "function",
      "constant": true
    },
    {
      "inputs": [
        {
          "internalType": "address",
          "name": "",
          "type": "address"
        }
      ],
      "name": "doctors",
      "outputs": [
        {
          "internalType": "bool",
          "name": "",
          "type": "bool"
        }
      ],
      "stateMutability": "view",
      "type": "function",
      "constant": true
    },
    {
      "inputs": [
        {
          "internalType": "address",
          "name": "_doctor",
          "type": "address"
        }
      ],
      "name": "registerDoctor",
      "outputs": [],
      "stateMutability": "nonpayable",
      "type": "function"
    },
    {
      "inputs": [
        {
          "internalType": "address",
          "name": "_patient",
          "type": "address"
        },
        {
          "internalType": "string",
          "name": "_name",
          "type": "string"
        },
        {
          "internalType": "string",
          "name": "_data",
          "type": "string"
        }
      ],
      "name": "addRecord",
      "outputs": [],
      "stateMutability": "nonpayable",
      "type": "function"
    },
    {
      "inputs": [
        {
          "internalType": "address",
          "name": "_patient",
          "type": "address"
        }
      ],
      "name": "getRecords",
      "outputs": [
        {
          "components": [
            {
              "internalType": "string",
              "name": "patientName",
              "type": "string"
            },
            {
              "internalType": "string",
              "name": "data",
              "type": "string"
            },
            {
              "internalType": "uint256",
              "name": "timestamp",
              "type": "uint256"
            }
          ],
          "internalType": "struct PatientRecords.Record[]",
          "name": "",
          "type": "tuple[]"
        }
      ],
      "stateMutability": "view",
      "type": "function",
      "constant": true
    }
  ],
  "bytecode": "0x608060405234801561000f575f80fd5b50600280546001600160a01b031916331790556107fe8061002f5f395ff3fe608060405234801561000f575f80fd5b5060043610610055575f3560e01c8063699ca99814610059578063a0076e841461006e578063a9583c2214610097578063d47b41d5146100c9578063f851a440146100dc575b5f80fd5b61006c610067366004610488565b610107565b005b61008161007c366004610488565b61018c565b60405161008e91906104eb565b60405180910390f35b6100b96100a5366004610488565b60016020525f908152604090205460ff1681565b604051901515815260200161008e565b61006c6100d7366004610617565b610383565b6002546100ef906001600160a01b031681565b6040516001600160a01b03909116815260200161008e565b6002546001600160a01b031633146101665760405162461bcd60e51b815260206004820152601f60248201527f4f6e6c792061646d696e2063616e20726567697374657220646f63746f72730060448201526064015b60405180910390fd5b6001600160a01b03165f908152600160208190526040909120805460ff19169091179055565b6060336001600160a01b03831614806101b35750335f9081526001602052604090205460ff165b6101ef5760405162461bcd60e51b815260206004820152600d60248201526c1058d8d95cdcc819195b9a5959609a1b604482015260640161015d565b6001600160a01b0382165f9081526020818152604080832080548251818502810185019093528083529193909284015b82821015610378578382905f5260205f2090600302016040518060600160405290815f8201805461024f90610686565b80601f016020809104026020016040519081016040528092919081815260200182805461027b90610686565b80156102c65780601f1061029d576101008083540402835291602001916102c6565b820191905f5260205f20905b8154815290600101906020018083116102a957829003601f168201915b505050505081526020016001820180546102df90610686565b80601f016020809104026020016040519081016040528092919081815260200182805461030b90610686565b80156103565780601f1061032d57610100808354040283529160200191610356565b820191905f5260205f20905b81548152906001019060200180831161033957829003601f168201915b505050505081526020016002820154815250508152602001906001019061021f565b505050509050919050565b335f9081526001602052604090205460ff166103f15760405162461bcd60e51b815260206004820152602760248201527f4f6e6c79207265676973746572656420646f63746f72732063616e20616464206044820152667265636f72647360c81b606482015260840161015d565b6001600160a01b0383165f90815260208181526040808320815160608101835286815280840186905242928101929092528054600181018255908452919092208251600390920201908190610446908261070c565b506020820151600182019061045b908261070c565b50604082015181600201555050505050565b80356001600160a01b0381168114610483575f80fd5b919050565b5f60208284031215610498575f80fd5b6104a18261046d565b9392505050565b5f81518084525f5b818110156104cc576020818501810151868301820152016104b0565b505f602082860101526020601f19601f83011685010191505092915050565b5f6020808301818452808551808352604092508286019150828160051b8701018488015f5b8381101561056c57603f19898403018552815160608151818652610536828701826104a8565b915050888201518582038a87015261054e82826104a8565b92890151958901959095525094870194925090860190600101610510565b509098975050505050505050565b634e487b7160e01b5f52604160045260245ffd5b5f82601f83011261059d575f80fd5b813567ffffffffffffffff808211156105b8576105b861057a565b604051601f8301601f19908116603f011681019082821181831017156105e0576105e061057a565b816040528381528660208588010111156105f8575f80fd5b836020870160208301375f602085830101528094505050505092915050565b5f805f60608486031215610629575f80fd5b6106328461046d565b9250602084013567ffffffffffffffff8082111561064e575f80fd5b61065a8783880161058e565b9350604086013591508082111561066f575f80fd5b5061067c8682870161058e565b9150509250925092565b600181811c9082168061069a57607f821691505b6020821081036106b857634e487b7160e01b5f52602260045260245ffd5b50919050565b601f821115610707575f81815260208120601f850160051c810160208610156106e45750805b601f850160051c820191505b81811015610703578281556001016106f0565b5050505b505050565b815167ffffffffffffffff8111156107265761072661057a565b61073a816107348454610686565b846106be565b602080601f83116001811461076d575f84156107565750858301515b5f19600386901b1c1916600185901b178555610703565b5f85815260208120601f198616915b8281101561079b5788860151825594840194600190910190840161077c565b50858210156107b857878501515f19600388901b60f8161c191681555b5050505050600190811b0190555056fea2646970667358221220a6f89e5c4dff47dc108a0a540e693ab374bb6e98329669f5a125ea5950189d4964736f6c63430008140033",
  "immutableReferences": {},
  "source": "// SPDX-License-Identifier: MIT\r\npragma solidity ^0.8.20;\r\n\r\ncontract PatientRecords {\r\n    struct Record {\r\n        string patientName;\r\n        string data;      // Could be JSON or IPFS hash\r\n        uint timestamp;\r\n    }\r\n\r\n    mapping(address => Record[]) private records;\r\n    mapping(address => bool) public doctors;\r\n\r\n    address public admin;\r\n\r\n    constructor() {\r\n        admin = msg.sender;  // Contract deployer is admin\r\n    }\r\n\r\n    // Register a new doctor (only admin)\r\n    function registerDoctor(address _doctor) public {\r\n        require(msg.sender == admin, \"Only admin can register doctors\");\r\n        doctors[_doctor] = true;\r\n    }\r\n\r\n    // Add medical record (only doctors)\r\n    function addRecord(address _patient, string memory _name, string memory _data) public {\r\n        require(doctors[msg.sender], \"Only registered doctors can add records\");\r\n        records[_patient].push(Record(_name, _data, block.timestamp));\r\n    }\r\n\r\n    // View records (any patient can view their own records)\r\n    function getRecords(address _patient) public view returns (Record[] memory) {\r\n        require(msg.sender == _patient || doctors[msg.sender], \"Access denied\");\r\n        return records[_patient];\r\n    }\r\n}\r\n",
  "sourcePath": "C:\\Users\\harsh\\Downloads\\My_project\\BlockchainHealthcare\\contracts\\PatientRecords.sol",
  "compiler": {
    "name": "solc",
    "version": "0.8.20+commit.a1b79de6.Emscripten.clang"
  },
  "schemaVersion": "3.4.16",
  "updatedAt": "2025-11-15T14:16:42.600Z",
  "networkType": "ethereum",
  "devdoc": {
    "kind": "dev",
    "methods": {},
    "version": 1
  },
  "userdoc": {
    "kind": "user",
    "methods": {},
    "version": 1
  }
}